:100000000C945A000C9477000C9477000C947700B1
:100010000C9477000C9477000C9477000C94770084
:100020000C9477000C9477000C9477000C94770074
:100030000C9477000C9477000C9477000C94770064
:100040000C9477000C9477000C9477000C94770054
:100050000C9477000C9477000C9477000C94770044
:100060000C9477000C9477000C9477000C94770034
:100070000C9477000C9477000C9477000C94770024
:100080000C9477000C9477000C9477000C94770014
:100090000C9477000C9477000C9477000C94770004
:1000A0000C9477000C9477000C9477000C947700F4
:1000B0000C94770011241FBECFEFD8E0DEBFCDBF78
:1000C00011E0A0E0B1E0ECE8F1E002C005900D9293
:1000D000A630B107D9F721E0A6E0B1E001C01D923A
:1000E000AF31B207E1F70E94BD000C94C4000C943C
:1000F00000009093C5008093C40088E18093C10004
:10010000E2ECF0E086E0808380818860808308955F
:100110009091C00095FFFCCF8093C6000895809118
:10012000C0008823E4F785B1816085B98091C6005D
:100130000895CF93DF93EC0103C00E9488002196BD
:1001400088818111FACFDF91CF91089587E690E001
:100150000E94790086E0E0E0F1E0A6E0B1E00190E5
:100160000D928A95E1F786E091E00E94990084B1B2
:10017000816084B9F894789408950E94A6000E9442
:0C0180008F000E948800FBCFF894FFCF96
:06018C00696E69740A00AF
:00000001FF
