:100000000C945A000C9477000C9477000C947700B1
:100010000C9477000C9477000C9477000C94770084
:100020000C9477000C9477000C943E010C947700AC
:100030000C9477000C9477000C9477000C94770064
:100040000C9477000C9477000C9477000C94770054
:100050000C9477000C9477000C9477000C94770044
:100060000C9477000C9477000C9477000C94770034
:100070000C9477000C9477000C9477000C94770024
:100080000C9477000C9477000C9477000C94770014
:100090000C9477000C9477000C9477000C94770004
:1000A0000C9477000C9477000C9477000C947700F4
:1000B0000C94770011241FBECFEFD8E0DEBFCDBF78
:1000C00011E0A0E0B1E0E8EEF0E102C005900D9291
:1000D000A034B107D9F721E0A0E4B1E001C01D923E
:1000E000A936B207E1F70E94B1020C9472080C9491
:1000F00000009093C5008093C40088E18093C10004
:10010000E2ECF0E086E0808380818860808308955F
:100110009091C00095FFFCCF8093C6000895CF93C7
:10012000DF93EC0103C00E94880021968881811131
:10013000FACFDF91CF91089587E690E00E94790091
:10014000F89486E0E4E0F1E0ACE4B1E001900D92D7
:100150008A95E1F78CE491E00E948F008AB1806477
:100160008AB987B1816087B987B1826087B984B164
:100170008E7F84B98AB180628AB98AB188608AB96F
:100180008AB184608AB98AB181608AB98AB1826091
:100190008AB984B1846084B985B5846085BD85B52C
:1001A0008D7F85BD85B5816085BD84B5816084BD49
:1001B00084B58D7F84BD85B5886085BD84B5806A32
:1001C00084BD84B58F7A84BD8CE987BD67B570E046
:1001D00080E090E00E94670420E030E044EB52E4CD
:1001E0000E94F30420E030E048EC52E40E94BD039A
:1001F0000E94360468BDA1EBB0E08C918B7F8C939C
:100200008C9182608C938C918E7F8C93E0EBF0E0EC
:1002100080818160808380818D7F80838C918860E4
:100220008C938081806A808380818F7A8083E3EBE6
:10023000F0E084E18083808122E3829FC001112469
:1002400064E670E00E9460056093B400E1E8F0E0CD
:1002500080818E7F808380818D7F80838081846098
:100260008083808180648083EFE6F0E0808180621B
:10027000808386B3806286BB789408951F920F9224
:100280000FB60F9211242F933F934F935F936F9369
:100290007F938F939F93AF93BF93EF93FF9380913F
:1002A000810086FF09C08091840090918500909321
:1002B0006801809367014CC0809184009091850013
:1002C00090936601809365012091650130916601EC
:1002D0008091670190916801281739077CF080911F
:1002E0006501909166012091670130916801821B40
:1002F000930B90934B0180934A010EC0809165014E
:10030000909166012091670130916801821B930BE7
:1003100090934B0180934A0160914A0170914B0187
:10032000072E000C880B990B0E9467042BE734E121
:100330004EEA5EE30E94F30420E030E040E05FE339
:100340000E94F3040E942F047093450160934401BE
:1003500086B3806286BBE1E8F0E0908180E4892783
:100360008083FF91EF91BF91AF919F918F917F918A
:100370006F915F914F913F912F910F900FBE0F9012
:100380001F9018956817790714F0862F972F0895F6
:100390008617970714F0862F972F0895EF92FF92F4
:1003A0000F931F93CF93DF936091480170914901A0
:1003B00080914201909143010E94C8018C0160919B
:1003C00048017091490180914201909143010E943E
:1003D000C2017C011F930F938AE091E09F938F935A
:1003E000CCE4D1E0DF93CF930E948805CE010E9438
:1003F0008F00FF92EF9284E191E09F938F93DF93C0
:10040000CF930E948805CE010E948F008091020147
:10041000909103019F938F938EE191E09F938F932F
:10042000DF93CF930E948805CE010E948F008091B8
:100430000001909101019F938F938EE291E09F9331
:100440008F93DF93CF930E948805CE010E948F0087
:1004500080910201909103012DB73EB7285E3F4F76
:100460000FB6F8943EBF0FBE2DBF801791070CF555
:100470008091000190910101E816F906D4F48CE610
:100480009AE0998388838AE090E09B838A83CE01F7
:100490000E948F0088B1816088B93FEF80E792E0C9
:1004A000315080409040E1F700C0000088B18E7F5D
:1004B00088B9DF91CF911F910F91FF90EF90089530
:1004C00080914401909145010C97A4F480914001E2
:1004D00090914101892B71F48091460190914701DF
:1004E000909343018093420181E090E09093410119
:1004F0008093400180914401909145010C9744F113
:100500008091400190914101019711F58091460140
:1005100090914701909349018093480110924101C5
:1005200010924001ECE4F1E083E79AE0918380834C
:100530008AE090E093838283CF010E948F002FEFA7
:1005400081EE94E0215080409040E1F700C000002F
:1005500080914401909145010C9714F40E94CE01C2
:1005600008950E949C00CCE4D1E086E69AE099834D
:1005700088838AE090E09B838A83CE010E948F006B
:1005800088B1826088B92FEF80E792E021508040E7
:100590009040E1F700C0000088B18D7F88B983E703
:1005A0009AE0998388831A82CE010E948F008FE39C
:1005B0009CE90197F1F700C00000C1E0D0E033C032
:1005C00047B564E670E09B012C1B3D0B429FC001C8
:1005D000439F900D11240E94600568BDBE010D2E41
:1005E000000C880B990B0E94670428E431EE42E866
:1005F00051E40E94F30428E431EE42E851E40E9401
:1006000050030E942F0470934701609346010E949B
:1006100060029FEF20E782E0915020408040E1F7A8
:1006200000C000002196CD30D10554F2C1E0D0E0E9
:1006300033C047B59E01285A3F4F429FC001439F98
:10064000900D112464E670E00E94600568BDBE0153
:100650000D2E000C880B990B0E94670428E431EEE4
:1006600042E851E40E94F30428E431EE42E851E408
:100670000E9450030E942F0470934701609346012B
:100680000E9460029FEF20E782E09150204080406E
:10069000E1F700C000002196CD30D10554F263CFC0
:1006A0005058BB27AA270E9468030C94B9040E94E3
:1006B000AB0438F00E94B20420F039F49F3F19F4E3
:1006C00026F40C94A8040EF4E095E7FB0C94A20425
:1006D000E92F0E94CA0458F3BA1762077307840708
:1006E000950720F079F4A6F50C94EC040EF4E0954F
:1006F0000B2EBA2FA02D0B01B90190010C01CA01DC
:10070000A0011124FF27591B99F0593F50F4503E86
:1007100068F11A16F040A22F232F342F4427585F78
:10072000F3CF469537952795A795F0405395C9F790
:100730007EF41F16BA0B620B730B840BBAF0915048
:10074000A1F0FF0FBB1F661F771F881FC2F70EC0E7
:10075000BA0F621F731F841F48F4879577956795BA
:10076000B795F7959E3F08F0B0CF9395880F08F0A6
:100770009927EE0F9795879508950E94D1030C94C1
:10078000B9040E94B20458F00E94AB0440F029F46E
:100790005F3F29F00C94A20451110C94ED040C94C9
:1007A000A8040E94CA0468F39923B1F3552391F376
:1007B000951B550BBB27AA2762177307840738F0D0
:1007C0009F5F5F4F220F331F441FAA1FA9F335D02D
:1007D0000E2E3AF0E0E832D091505040E695001CE1
:1007E000CAF72BD0FE2F29D0660F771F881FBB1F9B
:1007F000261737074807AB07B0E809F0BB0B802D79
:10080000BF01FF2793585F4F3AF09E3F510578F0A4
:100810000C94A2040C94ED045F3FE4F3983ED4F3EF
:10082000869577956795B795F7959F5FC9F7880F78
:10083000911D9695879597F90895E1E0660F771FCA
:10084000881FBB1F621773078407BA0720F0621B5B
:10085000730B840BBA0BEE1F88F7E09508950E9486
:1008600036046894B1110C94ED0408950E94D204EA
:1008700088F09F5798F0B92F9927B751B0F0E1F061
:10088000660F771F881F991F1AF0BA95C9F714C011
:10089000B13091F00E94EC04B1E008950C94EC04A6
:1008A000672F782F8827B85F39F0B93FCCF386954A
:1008B00077956795B395D9F73EF4909580957095A7
:1008C00061957F4F8F4F9F4F0895E89409C097FB24
:1008D0003EF490958095709561957F4F8F4F9F4F17
:1008E0009923A9F0F92F96E9BB279395F69587955B
:1008F00077956795B795F111F8CFFAF4BB0F11F41E
:1009000060FF1BC06F5F7F4F8F4F9F4F16C08823C4
:1009100011F096E911C0772321F09EE8872F762FFA
:1009200005C0662371F096E8862F70E060E02AF03B
:100930009A95660F771F881FDAF7880F9695879527
:1009400097F9089597F99F6780E870E060E008954F
:100950009FEF80EC089500240A94161617061806D7
:100960000906089500240A941216130614060506B3
:100970000895092E0394000C11F4882352F0BB0F44
:1009800040F4BF2B11F460FF04C06F5F7F4F8F4FA7
:100990009F4F089557FD9058440F551F59F05F3FE2
:1009A00071F04795880F97FB991F61F09F3F79F091
:1009B00087950895121613061406551FF2CF469513
:1009C000F1DF08C0161617061806991FF1CF869595
:1009D0007105610508940895E894BB276627772779
:1009E000CB0197F908950E9406050C94B9040E9462
:1009F000AB0438F00E94B20420F0952311F00C945F
:100A0000A2040C94A80411240C94ED040E94CA04BE
:100A100070F3959FC1F3950F50E0551F629FF00151
:100A2000729FBB27F00DB11D639FAA27F00DB11D6A
:100A3000AA1F649F6627B00DA11D661F829F2227F3
:100A4000B00DA11D621F739FB00DA11D621F839F7A
:100A5000A00D611D221F749F3327A00D611D231F50
:100A6000849F600D211D822F762F6A2F11249F579E
:100A700050409AF0F1F088234AF0EE0FFF1FBB1FA1
:100A8000661F771F881F91505040A9F79E3F510560
:100A900080F00C94A2040C94ED045F3FE4F3983EC4
:100AA000D4F3869577956795B795F795E7959F5F0A
:100AB000C1F7FE2B880F911D9695879597F908959C
:100AC00097FB072E16F4009407D077FD09D00E94FB
:100AD000740507FC05D03EF4909581959F4F0895CD
:100AE000709561957F4F0895AA1BBB1B51E107C00C
:100AF000AA1FBB1FA617B70710F0A61BB70B881FAE
:100B0000991F5A95A9F780959095BC01CD0108953C
:100B1000AEE0B0E0EEE8F5E00C9449080D891E89DE
:100B200086E08C831A8309838FEF9FE79E838D83F2
:100B3000AE01475E5F4F6F89788DCE0101960E94AE
:100B4000AA05EF81F885E00FF11F10822E96E4E0F0
:100B50000C946508ABE0B0E0E0EBF5E00C943B08EA
:100B60006C017B018A01FC0117821682838181FF5F
:100B7000CCC1CE0101963C01F6019381F70193FDB2
:100B8000859193FF81917F01882309F4BAC1853251
:100B900039F493FD859193FF81917F01853229F48A
:100BA000B60190E00E94A107E7CF912C212C312CB7
:100BB000FFE1F315D8F08B3279F038F4803279F018
:100BC0008332A1F4232D20611DC08D3261F080336A
:100BD00069F4232D216016C0832D8260382EE32D09
:100BE000E4603E2E2AC0F32DF8601DC037FC2DC0F6
:100BF00020ED280F2A3040F08E32B9F436FC81C146
:100C0000232D2064322E19C036FE06C08AE0989E3D
:100C1000200D1124922E11C0EAE02E9E200D1124E9
:100C2000222EF32DF0623F2E08C08C3621F4832D46
:100C30008068382E02C0883641F4F70193FD859113
:100C400093FF81917F018111B3CF982F9F7D9554A0
:100C5000933028F40C5F1F4F9FE399830DC08336B8
:100C600031F0833771F0833509F059C021C0F801A4
:100C7000808189830E5F1F4F88248394912C5301B8
:100C800013C02801F2E04F0E511CF801A080B18082
:100C900036FE03C0692D70E002C06FEF7FEFC50123
:100CA0000E9496074C018201F32DFF773F2E16C05C
:100CB000280122E0420E511CF801A080B18036FECE
:100CC00003C0692D70E002C06FEF7FEFC5010E9485
:100CD0008B074C01F32DF0683F2E820133FC1BC0C3
:100CE000822D90E088169906B0F4B60180E290E07B
:100CF0000E94A1072A94F4CFF50137FC859137FEB5
:100D000081915F01B60190E00E94A10721102A9411
:100D100021E0821A91088114910471F7E8C08436A9
:100D200011F0893641F5F80137FE07C06081718105
:100D3000828193810C5F1F4F08C060817181072EF3
:100D4000000C880B990B0E5F1F4FF32DFF763F2E83
:100D500097FF09C090958095709561957F4F8F4F53
:100D60009F4FF0683F2E2AE030E0A3010E94DD078C
:100D7000882E861845C0853731F4232D2F7EB22E5C
:100D80002AE030E025C0932D997FB92E8F36C1F02F
:100D900018F4883579F0B5C0803719F0883721F01C
:100DA000B0C0E92FE061BE2EB4FE0DC0FB2DF46093
:100DB000BF2E09C034FE0AC0292F2660B22E06C0FD
:100DC00028E030E005C020E130E002C020E132E060
:100DD000F801B7FE07C060817181828193810C5F49
:100DE0001F4F06C06081718180E090E00E5F1F4F51
:100DF000A3010E94DD07882E8618FB2DFF773F2E6A
:100E000036FE0DC0232D2E7FA22E891458F434FEF9
:100E10000BC032FC09C0832D8E7EA82E05C0B82CD5
:100E2000A32C03C0B82C01C0B92CA4FE0FC0FE0136
:100E3000E80DF11D8081803321F49A2D997EA92E31
:100E400009C0A2FE06C0B394B39404C08A2D86786C
:100E500009F0B394A3FC11C0A0FE06C0B21488F43C
:100E6000280C922C9B180EC0B21460F4B60180E2DC
:100E700090E00E94A107B394F7CFB21418F42B1896
:100E800002C0982C212CA4FE10C0B60180E390E093
:100E90000E94A107A2FE17C0A1FC03C088E790E052
:100EA00002C088E590E0B6010CC08A2D867859F022
:100EB000A1FE02C08BE201C080E2A7FC8DE2B60178
:100EC00090E00E94A107891438F4B60180E390E015
:100ED0000E94A1079A94F7CF8A94F301E80DF11DBF
:100EE0008081B60190E00E94A1078110F5CF2220F9
:100EF00009F442CEB60180E290E00E94A1072A9454
:100F0000F6CFF6018681978102C08FEF9FEF2B9677
:100F1000E2E10C945708FC0105906150704001100B
:100F2000D8F7809590958E0F9F1F0895FC01615012
:100F3000704001900110D8F7809590958E0F9F1FFB
:100F400008950F931F93CF93DF93FB01238121FD1E
:100F500003C08FEF9FEF2CC022FF16C04681578140
:100F6000248135814217530744F4A081B1819D014A
:100F70002F5F3F4F318320838C93268137812F5FF2
:100F80003F4F3783268314C08B01EC01FB010084A3
:100F9000F185E02D0995892BE1F6D80116968D9102
:100FA0009C911797019617969C938E931697CE0156
:100FB000DF91CF911F910F910895FA01AA27283050
:100FC00051F1203181F1E8946F936E7F6E5F7F4F16
:100FD0008F4F9F4FAF4FB1E03ED0B4E03CD0670F92
:100FE000781F891F9A1FA11D680F791F8A1F911DE5
:100FF000A11D6A0F711D811D911DA11D20D009F435
:1010000068943F912AE0269F11243019305D319376
:10101000DEF6CF010895462F4770405D4193B3E05F
:101020000FD0C9F7F6CF462F4F70405D4A3318F006
:10103000495D31FD4052419302D0A9F7EACFB4E0B7
:10104000A6959795879577956795BA95C9F700976F
:101050006105710508959B01AC010A2E0694579510
:10106000479537952795BA95C9F7620F731F841F67
:10107000951FA01D08952F923F924F925F926F92FD
:101080007F928F929F92AF92BF92CF92DF92EF9218
:10109000FF920F931F93CF93DF93CDB7DEB7CA1B99
:1010A000DB0B0FB6F894DEBF0FBECDBF09942A88C4
:1010B000398848885F846E847D848C849B84AA846C
:1010C000B984C884DF80EE80FD800C811B81AA81F9
:1010D000B981CE0FD11D0FB6F894DEBF0FBECDBFC4
:0810E000ED010895F894FFCF23
:1010E80096001E00496E69740A006D696E692025B4
:1010F80064200A006D617869202564200A00696E01
:101108006974546872657368202564200A006669EA
:101118006E616C546872657368202564200A00004B
:00000001FF
