S00D000052616461722E737265632D
S11300000C9469000C9486000C9486000C94860071
S11300100C9486000C9486000C9486000C94860044
S11300200C9486000C9486000C9486000C94860034
S11300300C9486000C9486000C9486000C94860024
S11300400C9486000C9486000C9486000C94860014
S11300500C9486000C9486000C9486000C94860004
S11300600C9486000C9486000C9486000C948600F4
S11300700C9486000C9486000C9486000C948600E4
S11300800C9486000C9486000C9486000C948600D4
S11300900C9486000C9486000C9486000C948600C4
S11300A00C9486000C9486000C9486000C948600B4
S11300B00C94860005A84CCDB2D44EB93836A902AA
S11300C00C50B9918688083CA6AAAA2ABE00000052
S11300D0803F11241FBECFEFD8E0DEBFCDBF13E0B9
S11300E0A0E0B1E0EEE2FFE002C005900D92AA3676
S11300F0B107D9F723E0AAE6B3E001C01D92A739FE
S1130100B207E1F70E94D0030C9495070C94000009
S11301109093C5008093C40088E18093C100E2EC11
S1130120F0E086E080838081886080830895CF93A7
S1130130DF93EA01262F482F0E946504CE010E9416
S11301400704DF91CF9108957F928F929F92AF928F
S1130150BF92CF92DF92EF92FF920F931F93CF93B0
S1130160DF935A0190E2A91AB10840EA50E0481B13
S11301705109483051050CF441C040E850E0461B99
S11301805109483051058CF539C0F501EE0FFF1FB8
S1130190EE0FFF1FEA0DFB1DE757FE4FEE0DFF1D8F
S11301A07080C0E0D0E01AC0272D30E00C2E02C0D1
S11301B0359527950A94E2F720FF08C0A6016C2F15
S11301C0680D892D8E0D0E94970007C0A8016C2F21
S11301D0680D892D8E0D0E9497002196C830D10597
S11301E01CF39FEFE91AF90A05C06901862E982EBF
S11301F0E12CF12C85E0E816F1043CF2DF91CF917B
S11302001F910F91FF90EF90DF90CF90BF90AF9030
S11302109F908F907F9008956817790714F0862F28
S1130220972F08958617970714F0862F972F089510
S1130230CF92DF92EF92FF920F931F93CF93DF93AE
S1130240F82EE62ED42EC22E0E946504C0E0D0E023
S113025004C0C8010E94070421962D2D30E02F19F7
S113026031098C2D90E08E199109289FA001299FB6
S1130270500D389F500D1124C417D50754F3DF9146
S1130280CF911F910F91FF90EF90DF90CF90089541
S11302903F924F925F926F927F928F929F92AF9212
S11302A0BF92CF92DF92EF92FF920F931F93CF935F
S11302B0DF936C01EB014A015901BA010E9412015A
S11302C0682E782EB401C6010E940C01582E482EC7
S11302D04618B501CE010E941201382EB501CE0197
S11302E00E940C017501EC1AFD0A8319C814D90483
S11302F019F0E114F10439F42A2D482D6C2F8C2DBA
S11303000E94180132C04816B0F42DC0272D30E0E9
S113031026193109E29EC001E39E900DF29E900DD4
S11303201124642D70E00E9438076C0FA801872DFA
S11303300E9497007394571448F717C0272D30E094
S113034026193109E29EC001E39E900DF29E900DA4
S11303501124642D70E00E9438076C0FA801872DCA
S11303600E9497007394571448F7DF91CF911F911F
S11303700F91FF90EF90DF90CF90BF90AF909F9040
S11303808F907F906F905F904F903F9008950F9360
S11303901F93CF93DF938C012FE74FE960E080E058
S11303A00E946504C0E0D0E004C0C8010E940704B4
S11303B02196C11580E5D807C4F3DF91CF911F9131
S11303C00F9108956F927F928F929F92AF92BF92F6
S11303D0CF92DF92EF92FF920F931F93CF93DF930D
S11303E0682E762E4A0159016801FA010190002015
S11303F0E9F731977F01E41AF50AC0E0D0E010C0B4
S1130400F401EC0FFD1F408150E08C2F880F880F02
S11304108C0F86019501672D860D0E94A4002196FC
S1130420CE15DF056CF3DF91CF911F910F91FF90F3
S1130430EF90DF90CF90BF90AF909F908F907F9080
S11304406F900895F89487E690E00E9488000E94D7
S1130450550480E090E00E94C701789408954F927B
S11304605F926F927F928F929F92AF92BF92EF9220
S1130470FF920F931F93CF93DF93C0E0D0E0BBC0F4
S11304804AE062E773E0CE010E94600700E010E0FA
S11304902FEF3FEF42E753E06AE08AE00E94E20177
S11304A080916E0390916F03909371038093700316
S11304B080916C0390916D039093960380939503C0
S11304C000916A0310916B03E0900001F090010128
S11304D0BE016A557109072E000C880B990B0E9406
S11304E0AF052BED3FE049E450E40E947A0620E09A
S11304F030E044E353E40E9405052B013C010E94D3
S113050000054B015C01B701FF0C880B990B0E949D
S1130510AF05A50194010E947A064B015C01B80164
S1130520110F880B990B0E94AF05A50194010E943D
S113053094040E94770570936F0360936E03009197
S1130540020110910301E0900001F0900101C30148
S1130550B2010E94E7064B015C01B701FF0C880B56
S1130560990B0E94AF05A50194010E947A064B01E4
S11305705C01B801110F880B990B0E94AF05A5010E
S113058094010E9494040E94770570936D03609314
S11305906C03209195033091960340917003509120
S11305A07103609102017091030180916A0390913B
S11305B06B0300E010E00E94480120916C0330912D
S11305C06D0340916E0350916F036091020170912D
S11305D0030180916A0390916B0300EE17E00E947F
S11305E048012FEF80E792E0215080409040E1F7EE
S11305F000C000002196C43BD1050CF441CFC4EBEC
S1130600D0E0BBC04AE062E773E0CE010E9460071D
S113061000E010E02FEF3FEF42E753E06AE08AE0AA
S11306200E94E20180916E0390916F039093710395
S11306308093700380916C0390916D039093960363
S11306408093950300916A0310916B03E09000017D
S1130650F0900101BE016A557109072E000C880B48
S1130660990B0E94AF052BED3FE049E450E40E9452
S11306707A0620E030E044E353E40E9405052B01B0
S11306803C010E9400054B015C01B701FF0C880B83
S1130690990B0E94AF05A50194010E947A064B01B3
S11306A05C01B801110F880B990B0E94AF05A501DD
S11306B094010E9494040E94770570936F036093E1
S11306C06E030091020110910301E0900001F0908B
S11306D00101C301B2010E94E7064B015C01B701AD
S11306E0FF0C880B990B0E94AF05A50194010E9491
S11306F07A064B015C01B801110F880B990B0E941B
S1130700AF05A50194010E9494040E94770570939B
S11307106D0360936C03209195033091960340918F
S113072070035091710360910201709103018091F3
S11307306A0390916B0300E010E00E94480120914D
S11307406C0330916D0340916E0350916F0360917F
S113075002017091030180916A0390916B0300EE92
S113076017E00E9448012FEF80E792E0215080407B
S11307709040E1F700C0000021971C161D060CF400
S113078041CFDF91CF911F910F91FF90EF90BF90D8
S1130790AF909F908F907F906F905F904F9008954F
S11307A00E9422020E942F0280E090E0089580E5DA
S11307B08CBD81E08DBD089584B18F6284B98AB106
S11307C080648AB984B5836884BD85B5846085BD39
S11307D08FE787BD83ED90E30197F1F700C0000038
S11307E085B1826085B9089507C089EF90E00197CB
S11307F0F1F700C00000C9019C0121503109892B87
S1130800A1F708958EBD0DB407FEFDCF089525B15F
S11308102B7F25B99EBD0DB407FEFDCF8EBD0DB453
S113082007FEFDCF85B1846085B90895FF920F93CB
S11308301F93CF93DF93EC0185B18B7F85B927C0DC
S113084085B18E7F85B988810E940204FE013296AB
S1130850898195B1916095B908C08F010F5F1F4FD1
S113086080810E9402048C2FF801CFEFC80F811100
S1130870F4CFEF0121968081882341F08F3F11F05E
S113088090E002C084EF91E00E94F4036F2DFF24F6
S1130890FA94F60E6111D4CF85B1846085B9DF91E5
S11308A0CF911F910F91FF9008950E94DC030E9445
S11308B0D70381EE94E00197F1F700C0000066E1F0
S11308C084E091E00E9416040895CF93DF93CDB79E
S11308D0DEB761970FB6F894DEBF0FBECDBF9AE2C4
S11308E0998394E09A831B828C831D824E831F829A
S11308F08BE2888799871A866B871C862D871E86CC
S11309008CE28F87188A85E0898B63E0CE0101969B
S11309100E94160461960FB6F894DEBF0FBECDBFD9
S1130920DF91CF9108955058BB27AA270E94AB04AA
S11309300C942C060E94F30538F00E94FA0520F06E
S113094039F49F3F19F426F40C94F0050EF4E09565
S1130950E7FB0C94EA05E92F0E94510658F3BA17F5
S1130960620773078407950720F079F4A6F50C94C1
S113097073060EF4E0950B2EBA2FA02D0B01B901CE
S113098090010C01CA01A0011124FF27591B99F001
S1130990593F50F4503E68F11A16F040A22F232F0D
S11309A0342F4427585FF3CF469537952795A7955D
S11309B0F0405395C9F77EF41F16BA0B620B730B04
S11309C0840BBAF09150A1F0FF0FBB1F661F771F75
S11309D0881FC2F70EC0BA0F621F731F841F48F42A
S11309E0879577956795B795F7959E3F08F0B0CFB3
S11309F09395880F08F09927EE0F9795879508959A
S1130A000E940306E3950C943D060E9419050C947C
S1130A102C060E94FA0558F00E94F30540F029F4D0
S1130A205F3F29F00C94EA0551110C9474060C9460
S1130A30F0050E94510668F39923B1F3552391F30D
S1130A40951B550BBB27AA2762177307840738F039
S1130A509F5F5F4F220F331F441FAA1FA9F335D096
S1130A600E2E3AF0E0E832D091505040E695001C4A
S1130A70CAF72BD0FE2F29D0660F771F881FBB1F04
S1130A80261737074807AB07B0E809F0BB0B802DE2
S1130A90BF01FF2793585F4F3AF09E3F510578F00E
S1130AA00C94EA050C9474065F3FE4F3983ED4F387
S1130AB0869577956795B795F7959F5FC9F7880FE2
S1130AC0911D9695879597F90895E1E0660F771F34
S1130AD0881FBB1F621773078407BA0720F0621BC5
S1130AE0730B840BBA0BEE1F88F7E09508950E94F0
S1130AF07E056894B1110C94740608950E945906F9
S1130B0088F09F5798F0B92F9927B751B0F0E1F0CA
S1130B10660F771F881F991F1AF0BA95C9F714C07A
S1130B20B13091F00E947306B1E008950C947306FD
S1130B30672F782F8827B85F39F0B93FCCF38695B3
S1130B4077956795B395D9F73EF490958095709510
S1130B5061957F4F8F4F9F4F0895E89409C097FB8D
S1130B603EF490958095709561957F4F8F4F9F4F80
S1130B709923A9F0F92F96E9BB279395F6958795C4
S1130B8077956795B795F111F8CFFAF4BB0F11F487
S1130B9060FF1BC06F5F7F4F8F4F9F4F16C088232E
S1130BA011F096E911C0772321F09EE8872F762F64
S1130BB005C0662371F096E8862F70E060E02AF0A5
S1130BC09A95660F771F881FDAF7880F9695879591
S1130BD097F9089597F99F6780E870E060E00895B9
S1130BE09FEF80EC089500240A9416161706180641
S1130BF00906089500240A9412161306140605061D
S1130C0008950C94F0050E945906D8F3E894E0E0A6
S1130C10BB279F57F0F02AED3FE049EC06C0EE0FEA
S1130C20BB0F661F771F881F28F0B23A620773074D
S1130C30840728F0B25A620B730B840BE3959A95E0
S1130C4072F7803830F49A95BB0F661F771F881FA0
S1130C50D2F790480C94F106092E0394000C11F479
S1130C60882352F0BB0F40F4BF2B11F460FF04C083
S1130C706F5F7F4F8F4F9F4F0895EF93E0FF07C043
S1130C80A2EA2AED3FE049EC5FEB0E94AB040E942C
S1130C902C060F90039401FC9058E4EBF0E00C94C4
S1130CA0FD0657FD9058440F551F59F05F3F71F0F2
S1130CB04795880F97FB991F61F09F3F79F08795BF
S1130CC00895121613061406551FF2CF4695F1DF48
S1130CD008C0161617061806991FF1CF86957105D8
S1130CE0610508940895E894BB2766277727CB010C
S1130CF097F908950E948D060C942C060E94F30522
S1130D0038F00E94FA0520F0952311F00C94EA05BE
S1130D100C94F00511240C9474060E94510670F38F
S1130D20959FC1F3950F50E0551F629FF001729F8C
S1130D30BB27F00DB11D639FAA27F00DB11DAA1F9B
S1130D40649F6627B00DA11D661F829F2227B00DE8
S1130D50A11D621F739FB00DA11D621F839FA00D73
S1130D60611D221F749F3327A00D611D231F849FC3
S1130D70600D211D822F762F6A2F11249F5750401A
S1130D809AF0F1F088234AF0EE0FFF1FBB1F661F95
S1130D90771F881F91505040A9F79E3F510580F05E
S1130DA00C94EA050C9474065F3FE4F3983ED4F384
S1130DB0869577956795B795F795E7959F5FC1F702
S1130DC0FE2B880F911D9695879597F908959F930B
S1130DD00E9403060F9007FCEE5F0C943D069F3FB4
S1130DE031F0915020F4879577956795B795880FE2
S1130DF0911D9695879597F908959F938F937F9367
S1130E006F93FF93EF939B01AC010E947A06EF91DD
S1130E10FF910E9411072F913F914F915F910C9484
S1130E207A06DF93CF931F930F93FF92EF92DF9293
S1130E307B018C01689406C0DA2EEF010E948D06B6
S1130E40FE01E894A5912591359145915591A6F31C
S1130E50EF010E94AB04FE019701A801DA9469F73F
S1130E60DF90EF90FF900F911F91CF91DF91089544
S1130E7097FB072E16F4009407D077FD09D00E9443
S1130E804C0707FC05D03EF4909581959F4F08953B
S1130E90709561957F4F0895AA1BBB1B51E107C054
S1130EA0AA1FBB1FA617B70710F0A61BB70B881FF6
S1130EB0991F5A95A9F780959095BC01CD01089585
S1130EC0BB274A3031F4992322F4BDE290958195F1
S1130ED09F4F0C946C07BB27FB015527AA27880F4B
S1130EE0991FAA1FA41710F0A41B83955051B9F79A
S1130EF0A05DAA3308F0A95DA193009779F7B11119
S1130F00B1931192CB010C948507DC01FC01672F8E
S1130F1071917723E1F7329704C07C916D937083CC
S1110F206291AE17BF07C8F30895F894FFCF8F
S1130F2E200040000100961100FFB103012C2D009A
S1130F3EB203012C2D00B306012C2D012C2D00B46F
S1130F4E010700C0030A028405C101C505C2020AD5
S1130F5E0005C3028A2A05C4028AEE05C5010E00E5
S1130F6E2000003601C8003A0105002A04000000E2
S1130F7E7F002B040000009F00E010021C071237B4
S1130F8E32292D29252B390001031000E110031DF0
S1130F9E07062E2C292D2E2E373F0000021000138B
S1130FAE000A2900643601600A00000000000000F7
S1130FBE5F00000007000700147F147F14242A7FAB
S1130FCE2A12231308646236495522500005030081
S1130FDE00001C2241000041221C0014083E08148B
S1130FEE08083E08080050300000080808080800E9
S1130FFE6060000020100804023E5149453E004244
S113100E7F400042615149462141454B311814122B
S113101E7F1027454545393C4A4949300171090538
S113102E033649494936064949291E003636000019
S113103E005636000008142241001414141414002F
S113104E412214080201510906324979413E7E11AA
S113105E11117E7F494949363E414141227F41412A
S113106E221C7F494949417F090909013E414949E9
S113107E7A7F0808087F00417F41002040413F01EC
S113108E7F081422417F404040407F020C027F7F44
S113109E0408107F3E4141413E7F090909063E4145
S11310AE51215E7F09192946464949493101017F7B
S11310BE01013F4040403F1F2040201F3F40384029
S11310CE3F631408146307087008076151494543C8
S11310DE007F41410002040810200041417F0004BA
S11310EE020102044040404040000102040020542A
S11310FE5454787F48444438384444442038444453
S113110E487F3854545418087E0901020C52525226
S113111E3E7F0804047800447D40002040443D0096
S113112E7F1028440000417F40007C041804787C22
S113113E0804047838444444387C141414080814FD
S113114E14187C7C080404084854545420043F4466
S113115E40203C4040207C1C2040201C3C40304021
S113116E3C44281028440C5050503C4464544C4485
S113117E000836410000007F0000004136080010D0
S10D118E080810080006090906000D
S9030000FC
