S018000046696E616C496E746567726174696F6E2E737265639E
S11300000C9469000C9486000C9486000C94860071
S11300100C9486000C9486000C9486000C94860044
S11300200C9486000C9486000C9486000C94860034
S11300300C9486000C9486000C9486000C94860024
S11300400C9486000C9486000C9486000C94860014
S11300500C9486000C9486000C9486000C94860004
S11300600C9486000C9486000C9486000C948600F4
S11300700C9486000C9486000C9486000C948600E4
S11300800C9486000C9486000C9486000C948600D4
S11300900C9486000C9486000C9486000C948600C4
S11300A00C9486000C9486000C9486000C948600B4
S11300B00C94860005A84CCDB2D44EB93836A902AA
S11300C00C50B9918688083CA6AAAA2ABE00000052
S11300D0803F11241FBECFEFD8E0DEBFCDBF13E0B9
S11300E0A0E0B1E0E6E5F4E102C005900D92AE3780
S11300F0B107D9F723E0AEE7B3E001C01D92A43BFA
S1130100B207E1F70E942B030C94290A0C94000017
S11301109093C5008093C40088E18093C100E2EC11
S1130120F0E086E0808380818860808308959091E8
S1130130C00095FFFCCF8093C60008958091C00055
S11301408823E4F785B1816085B98091C60008955C
S1130150CF93DF93EC0103C00E949700219688811E
S11301608111FACFDF91CF910895CF93DF93EA0104
S1130170262F482F0E941E04CE010E94C003DF9147
S1130180CF9108957F928F929F92AF92BF92CF9218
S1130190DF92EF92FF920F931F93CF93DF935A0155
S11301A090E2A91AB10840EA50E0481B51094830CE
S11301B051050CF441C040E850E0461B5109483059
S11301C051058CF539C0F501EE0FFF1FEE0FFF1F2F
S11301D0EA0DFB1DE757FE4FEE0DFF1D7080C0E0DA
S11301E0D0E01AC0272D30E00C2E02C0359527959B
S11301F00A94E2F720FF08C0A6016C2F680D892D30
S11302008E0D0E94B50007C0A8016C2F680D892DC2
S11302108E0D0E94B5002196C830D1051CF39FEFC6
S1130220E91AF90A05C06901862E982EE12CF12CF1
S113023085E0E816F1043CF2DF91CF911F910F9114
S1130240FF90EF90DF90CF90BF90AF909F908F90F2
S11302507F9008956817790714F0862F972F0895D3
S11302608617970714F0862F972F0895CF92DF9261
S1130270EF92FF920F931F93CF93DF93F82EE62E06
S1130280D42EC22E0E941E04C0E0D0E004C0C801D7
S11302900E94C00321962D2D30E02F1931098C2D99
S11302A090E08E199109289FA001299F500D389F35
S11302B0500D1124C417D50754F3DF91CF911F912A
S11302C00F91FF90EF90DF90CF9008953F924F925F
S11302D05F926F927F928F929F92AF92BF92CF92D2
S11302E0DF92EF92FF920F931F93CF93DF936C01F2
S11302F0EB014A015901BA010E943001682E782E9F
S1130300B401C6010E942A01582E482E4618B50190
S1130310CE010E943001382EB501CE010E942A017F
S11303207501EC1AFD0A8319C814D90419F0E114F3
S1130330F10439F42A2D482D6C2F8C2D0E9436019E
S113034032C04816B0F42DC0272D30E026193109EB
S1130350E29EC001E39E900DF29E900D1124642D47
S113036070E00E94F1066C0FA801872D0E94B50071
S11303707394571448F717C0272D30E02619310914
S1130380E29EC001E39E900DF29E900D1124642D17
S113039070E00E94F1066C0FA801872D0E94B50041
S11303A07394571448F7DF91CF911F910F91FF90E9
S11303B0EF90DF90CF90BF90AF909F908F907F9001
S11303C06F905F904F903F9008950F931F93CF933A
S11303D0DF938C012FE74FE960E080E00E941E0468
S11303E0C0E0D0E004C0C8010E94C0032196C1153A
S11303F080E5D807C4F3DF91CF911F910F91089541
S11304006F927F928F929F92AF92BF92CF92DF9220
S1130410EF92FF920F931F93CF93DF93682E762E64
S11304204A0159016801FA0101900020E9F7319766
S11304307F01E41AF50AC0E0D0E010C0F401EC0F2B
S1130440FD1F408150E08C2F880F880F8C0F860190
S11304509501672D860D0E94C2002196CE15DF05F9
S11304606CF3DF91CF911F910F91FF90EF90DF908C
S1130470CF90BF90AF909F908F907F906F90089592
S1130480F89487E690E00E9488000E940E0480E0C1
S113049090E00E94E501789408958F929F92AF9224
S11304A0BF92CF92DF92EF92FF920F931F93CF935D
S11304B0DF938091840390918503909387038093C5
S11304C0860380918203909183039093B303809376
S11304D0B2030091800310918103A0900001B090B9
S11304E001018091920390919303CAE5D0E0BE018B
S11304F0681B790B072E000C880B990B0E9468056A
S11305002BED3FE049E450E40E94330620E030E064
S113051044E353E40E94BE040E94B9046B017C01CD
S1130520B501BB0C880B990B0E946805A7019601C5
S11305300E9433066B017C01B801110F880B990BE3
S11305400E946805A70196010E944D040E9430058F
S11305507093850360938403009102011091030159
S1130560E0900001F0900101809192039091930337
S1130570BE01681B790B072E000C880B990B0E9497
S113058068052BED3FE049E450E40E94330620E087
S113059030E044E353E40E94BE040E94A0064B01F1
S11305A05C01B701FF0C880B990B0E946805A5013B
S11305B094010E9433066B017C01B801110F880B72
S11305C0990B0E946805A70196010E944D040E94A0
S11305D0300570938303609382032091B2033091BA
S11305E0B303409186035091870360910201709197
S11305F00301809180039091810300E010E00E9448
S113060066012091820330918303409184035091C9
S113061085036091020170910301809180039091A0
S1130620810300EE17E00E9466012FE788E391E062
S1130630215080409040E1F700C00000DF91CF914D
S11306401F910F91FF90EF90DF90CF90BF90AF90EC
S11306509F908F9008950E9440020E949E00C82F90
S11306600E949700C13609F050C008C00E949E0045
S1130670FE01EC56FC4F8083219602C0C0E0D0E01E
S1130680C330D1059CF384E993E00E941907909349
S113069093038093920380919203909193039F9389
S11306A08F9389E693E09F938F9389E993E09F93D7
S11306B08F930E943F0789E993E00E94A80000E01D
S11306C010E028E746E964E684E60E9436012FEF4D
S11306D03FEF44E953E06AE08AE00E94000284E9C3
S11306E093E00E94A80080917E0390917F0301967D
S11306F090937F0380937E030E944D020F900F908E
S11307000F900F900F900F90A8CF00E010E02FEF04
S11307103FEF46E753E064E684E60E9400029DCF83
S113072080E58CBD81E08DBD089584B18F6284B96C
S11307308AB180648AB984B5836884BD85B58460D0
S113074085BD8FE787BD83ED90E30197F1F700C086
S1130750000085B1826085B9089507C089EF90E0F3
S11307600197F1F700C00000C9019C012150310933
S1130770892BA1F708958EBD0DB407FEFDCF089512
S113078025B12B7F25B99EBD0DB407FEFDCF8EBDCF
S11307900DB407FEFDCF85B1846085B90895FF923D
S11307A00F931F93CF93DF93EC0185B18B7F85B9B2
S11307B027C085B18E7F85B988810E94BB03FE0165
S11307C03296898195B1916095B908C08F010F5F08
S11307D01F4F80810E94BB038C2FF801CFEFC80FFD
S11307E08111F4CFEF0121968081882341F08F3F5E
S11307F011F090E002C084EF91E00E94AD036F2DF0
S1130800FF24FA94F60E6111D4CF85B1846085B9C2
S1130810DF91CF911F910F91FF9008950E9495034E
S11308200E94900381EE94E00197F1F700C000006C
S113083066E184E091E00E94CF030895CF93DF93B3
S1130840CDB7DEB761970FB6F894DEBF0FBECDBF4C
S11308509AE2998394E09A831B828C831D824E834F
S11308601F828BE2888799871A866B871C862D875F
S11308701E868CE28F87188A85E0898B63E0CE011F
S113088001960E94CF0361960FB6F894DEBF0FBEA7
S1130890CDBFDF91CF9108955058BB27AA270E945E
S11308A064040C94E5050E94AC0538F00E94B3057D
S11308B020F039F49F3F19F426F40C94A9050EF4A2
S11308C0E095E7FB0C94A305E92F0E940A0658F370
S11308D0BA17620773078407950720F079F4A6F521
S11308E00C942C060EF4E0950B2EBA2FA02D0B01C0
S11308F0B90190010C01CA01A0011124FF27591B61
S113090099F0593F50F4503E68F11A16F040A22F66
S1130910232F342F4427585FF3CF469537952795D7
S1130920A795F0405395C9F77EF41F16BA0B620BD6
S1130930730B840BBAF09150A1F0FF0FBB1F661F1D
S1130940771F881FC2F70EC0BA0F621F731F841F60
S113095048F4879577956795B795F7959E3F08F086
S1130960B0CF9395880F08F09927EE0F9795879548
S113097008950E94BC05E3950C94F6050E94D204E8
S11309800C94E5050E94B30558F00E94AC0540F0B4
S113099029F45F3F29F00C94A30551110C942D0602
S11309A00C94A9050E940A0668F39923B1F3552310
S11309B091F3951B550BBB27AA276217730784076E
S11309C038F09F5F5F4F220F331F441FAA1FA9F304
S11309D035D00E2E3AF0E0E832D091505040E695F2
S11309E0001CCAF72BD0FE2F29D0660F771F881F53
S11309F0BB1F261737074807AB07B0E809F0BB0B46
S1130A00802DBF01FF2793585F4F3AF09E3F510559
S1130A1078F00C94A3050C942D065F3FE4F3983E04
S1130A20D4F3869577956795B795F7959F5FC9F742
S1130A30880F911D9695879597F90895E1E0660FC3
S1130A40771F881FBB1F621773078407BA0720F03C
S1130A50621B730B840BBA0BEE1F88F7E0950895A5
S1130A600E9437056894B1110C942D0608950E94D4
S1130A70120688F09F5798F0B92F9927B751B0F014
S1130A80E1F0660F771F881F991F1AF0BA95C9F70E
S1130A9014C0B13091F00E942C06B1E008950C947A
S1130AA02C06672F782F8827B85F39F0B93FCCF32D
S1130AB0869577956795B395D9F73EF4909580958B
S1130AC0709561957F4F8F4F9F4F0895E89409C0AB
S1130AD097FB3EF490958095709561957F4F8F4F6D
S1130AE09F4F9923A9F0F92F96E9BB279395F69583
S1130AF0879577956795B795F111F8CFFAF4BB0F01
S1130B0011F460FF1BC06F5F7F4F8F4F9F4F16C064
S1130B10882311F096E911C0772321F09EE8872FEE
S1130B20762F05C0662371F096E8862F70E060E0AA
S1130B302AF09A95660F771F881FDAF7880F969523
S1130B40879597F9089597F99F6780E870E060E0CA
S1130B5008959FEF80EC089500240A941616170652
S1130B6018060906089500240A941216130614069A
S1130B70050608950C94A9050E941206D8F3E8947A
S1130B80E0E0BB279F57F0F02AED3FE049EC06C0B8
S1130B90EE0FBB0F661F771F881F28F0B23A62075B
S1130BA07307840728F0B25A620B730B840BE39526
S1130BB09A9572F7803830F49A95BB0F661F771FA9
S1130BC0881FD2F790480C94AA06092E0394000CAF
S1130BD011F4882352F0BB0F40F4BF2B11F460FFD3
S1130BE004C06F5F7F4F8F4F9F4F0895EF93E0FFD7
S1130BF007C0A2EA2AED3FE049EC5FEB0E946404DF
S1130C000E94E5050F90039401FC9058E4EBF0E09A
S1130C100C94B60657FD9058440F551F59F05F3F8A
S1130C2071F04795880F97FB991F61F09F3F79F00A
S1130C3087950895121613061406551FF2CF46958C
S1130C40F1DF08C0161617061806991FF1CF86950E
S1130C507105610508940895E894BB2766277727F2
S1130C60CB0197F908950E9446060C94E5050E946D
S1130C70AC0538F00E94B30520F0952311F00C94D4
S1130C80A3050C94A90511240C942D060E940A06B0
S1130C9070F3959FC1F3950F50E0551F629FF001CB
S1130CA0729FBB27F00DB11D639FAA27F00DB11DE4
S1130CB0AA1F649F6627B00DA11D661F829F22276D
S1130CC0B00DA11D621F739FB00DA11D621F839FF4
S1130CD0A00D611D221F749F3327A00D611D231FCA
S1130CE0849F600D211D822F762F6A2F11249F5718
S1130CF050409AF0F1F088234AF0EE0FFF1FBB1F1B
S1130D00661F771F881F91505040A9F79E3F5105D9
S1130D1080F00C94A3050C942D065F3FE4F3983EF9
S1130D20D4F3869577956795B795F795E7959F5F83
S1130D30C1F7FE2B880F911D9695879597F9089515
S1130D409F930E94BC050F9007FCEE5F0C94F60580
S1130D509F3F31F0915020F4879577956795B7952B
S1130D60880F911D9695879597F908959F938F9372
S1130D707F936F93FF93EF939B01AC010E94330623
S1130D80EF91FF910E94CA062F913F914F915F917D
S1130D900C943306DF93CF931F930F93FF92EF923C
S1130DA0DF927B018C01689406C0DA2EEF010E9469
S1130DB04606FE01E894A5912591359145915591FA
S1130DC0A6F3EF010E946404FE019701A801DA94DE
S1130DD069F7DF90EF90FF900F911F91CF91DF9112
S1130DE0089597FB072E16F4009407D077FD09D0D9
S1130DF00E94050707FC05D03EF4909581959F4F0E
S1130E000895709561957F4F0895AA1BBB1B51E10E
S1130E1007C0AA1FBB1FA617B70710F0A61BB70B66
S1130E20881F991F5A95A9F780959095BC01CD010B
S1130E300895FC0188279927E89421912032E9F349
S1130E40293010F02E30C8F32B3241F02D3239F412
S1130E50689404C00E943707820F911D219120538A
S1130E602A30C0F31EF4909581959F4F08957AE03F
S1130E70979F902D879F802D910D11240895AEE0AA
S1130E80B0E0E5E4F7E00C94000A0D891E8986E0E1
S1130E908C831A8309838FEF9FE79E838D83AE0132
S1130EA0475E5F4F6F89788DCE0101960E9461077E
S1130EB0EF81F885E00FF11F10822E96E4E00C9488
S1130EC01C0AABE0B0E0E7E6F7E00C94F2096C0131
S1130ED07B018A01FC0117821682838181FFCCC1C8
S1130EE0CE0101963C01F6019381F70193FD8591B2
S1130EF093FF81917F01882309F4BAC1853239F4C3
S1130F0093FD859193FF81917F01853229F4B60188
S1130F1090E00E945809E7CF912C212C312CFFE15D
S1130F20F315D8F08B3279F038F4803279F08332CB
S1130F30A1F4232D20611DC08D3261F0803369F44A
S1130F40232D216016C0832D8260382EE32DE460AA
S1130F503E2E2AC0F32DF8601DC037FC2DC020EDB5
S1130F60280F2A3040F08E32B9F436FC81C1232D8B
S1130F702064322E19C036FE06C08AE0989E200DE9
S1130F801124922E11C0EAE02E9E200D1124222E4F
S1130F90F32DF0623F2E08C08C3621F4832D806837
S1130FA0382E02C0883641F4F70193FD859193FFF2
S1130FB081917F018111B3CF982F9F7D95549330F8
S1130FC028F40C5F1F4F9FE399830DC0833631F0E3
S1130FD0833771F0833509F059C021C0F80180814D
S1130FE089830E5F1F4F88248394912C530113C06F
S1130FF02801F2E04F0E511CF801A080B18036FEAA
S113100003C0692D70E002C06FEF7FEFC5010E943D
S11310104D094C018201F32DFF773F2E16C02801A4
S113102022E0420E511CF801A080B18036FE03C0BC
S1131030692D70E002C06FEF7FEFC5010E94420985
S11310404C01F32DF0683F2E820133FC1BC0822D2E
S113105090E088169906B0F4B60180E290E00E9410
S113106058092A94F4CFF50137FC859137FE819114
S11310705F01B60190E00E94580921102A9421E0F2
S1131080821A91088114910471F7E8C0843611F032
S1131090893641F5F80137FE07C06081718182818C
S11310A093810C5F1F4F08C060817181072E000C73
S11310B0880B990B0E5F1F4FF32DFF763F2E97FF82
S11310C009C090958095709561957F4F8F4F9F4F84
S11310D0F0683F2E2AE030E0A3010E949409882E94
S11310E0861845C0853731F4232D2F7EB22E2AE091
S11310F030E025C0932D997FB92E8F36C1F018F4B6
S1131100883579F0B5C0803719F0883721F0B0C040
S1131110E92FE061BE2EB4FE0DC0FB2DF460BF2E9E
S113112009C034FE0AC0292F2660B22E06C028E06A
S113113030E005C020E130E002C020E132E0F801F7
S1131140B7FE07C060817181828193810C5F1F4F5C
S113115006C06081718180E090E00E5F1F4FA301A3
S11311600E949409882E8618FB2DFF773F2E36FEA9
S11311700DC0232D2E7FA22E891458F434FE0BC0EB
S113118032FC09C0832D8E7EA82E05C0B82CA32C5A
S113119003C0B82C01C0B92CA4FE0FC0FE01E80D99
S11311A0F11D8081803321F49A2D997EA92E09C0E6
S11311B0A2FE06C0B394B39404C08A2D867809F0C5
S11311C0B394A3FC11C0A0FE06C0B21488F4280C8A
S11311D0922C9B180EC0B21460F4B60180E290E029
S11311E00E945809B394F7CFB21418F42B1802C014
S11311F0982C212CA4FE10C0B60180E390E00E943C
S11312005809A2FE17C0A1FC03C088E790E002C001
S113121088E590E0B6010CC08A2D867859F0A1FECD
S113122002C08BE201C080E2A7FC8DE2B60190E02F
S11312300E945809891438F4B60180E390E00E94B2
S113124058099A94F7CF8A94F301E80DF11D80812F
S1131250B60190E00E9458098110F5CF222009F4CC
S113126042CEB60180E290E00E9458092A94F6CF5B
S1131270F6018681978102C08FEF9FEF2B96E2E102
S11312800C940E0AFC010590615070400110D8F7CF
S1131290809590958E0F9F1F0895FC0161507040BA
S11312A001900110D8F7809590958E0F9F1F089597
S11312B00F931F93CF93DF93FB01238121FD03C081
S11312C08FEF9FEF2CC022FF16C0468157812481E7
S11312D035814217530744F4A081B1819D012F5FEA
S11312E03F4F318320838C93268137812F5F3F4F7B
S11312F03783268314C08B01EC01FB010084F18544
S1131300E02D0995892BE1F6D80116968D919C91D3
S11313101797019617969C938E931697CE01DF919B
S1131320CF911F910F910895FA01AA27283051F106
S1131330203181F1E8946F936E7F6E5F7F4F8F4F02
S11313409F4FAF4FB1E03ED0B4E03CD0670F781F61
S1131350891F9A1FA11D680F791F8A1F911DA11D46
S11313606A0F711D811D911DA11D20D009F468947F
S11313703F912AE0269F11243019305D3193DEF627
S1131380CF010895462F4770405D4193B3E00FD0DD
S1131390C9F7F6CF462F4F70405D4A3318F0495DC8
S11313A031FD4052419302D0A9F7EACFB4E0A695AB
S11313B09795879577956795BA95C9F700976105CD
S11313C0710508959B01AC010A2E06945795479523
S11313D037952795BA95C9F7620F731F841F951F18
S11313E0A01D08952F923F924F925F926F927F9229
S11313F08F929F92AF92BF92CF92DF92EF92FF9221
S11314000F931F93CF93DF93CDB7DEB7CA1BDB0BCC
S11314100FB6F894DEBF0FBECDBF09942A88398871
S113142048885F846E847D848C849B84AA84B98478
S1131430C884DF80EE80FD800C811B81AA81B98184
S1131440CE0FD11D0FB6F894DEBF0FBECDBFED0198
S10914500895F894FFCF9B
S1131456400040000100961100FFB103012C2D004D
S1131466B203012C2D00B306012C2D012C2D00B442
S1131476010700C0030A028405C101C505C2020AA8
S11314860005C3028A2A05C4028AEE05C5010E00B8
S11314962000003601C8003A0105002A04000000B5
S11314A67F002B040000009F00E010021C07123787
S11314B632292D29252B390001031000E110031DC3
S11314C607062E2C292D2E2E373F0000021000135E
S11314D6000A2900643601600A00000000000000CA
S11314E65F00000007000700147F147F14242A7F7E
S11314F62A12231308646236495522500005030054
S113150600001C2241000041221C0014083E08145D
S113151608083E08080050300000080808080800BB
S11315266060000020100804023E5149453E004216
S11315367F400042615149462141454B31181412FE
S11315467F1027454545393C4A494930017109050B
S1131556033649494936064949291E0036360000EC
S11315660056360000081422410014141414140002
S1131576412214080201510906324979413E7E117D
S113158611117E7F494949363E414141227F4141FD
S1131596221C7F494949417F090909013E414949BC
S11315A67A7F0808087F00417F41002040413F01BF
S11315B67F081422417F404040407F020C027F7F17
S11315C60408107F3E4141413E7F090909063E4118
S11315D651215E7F09192946464949493101017F4E
S11315E601013F4040403F1F2040201F3F403840FC
S11315F63F6314081463070870080761514945439B
S1131606007F41410002040810200041417F00048C
S113161602010204404040404000010204002054FC
S11316265454787F48444438384444442038444425
S1131636487F3854545418087E0901020C525252F9
S11316463E7F0804047800447D40002040443D0069
S11316567F1028440000417F40007C041804787CF5
S11316660804047838444444387C141414080814D0
S113167614187C7C080404084854545420043F4439
S113168640203C4040207C1C2040201C3C403040F4
S11316963C44281028440C5050503C4464544C4458
S11316A6000836410000007F0000004136080010A3
S11316B6080810080006090906616E676C653A2079
S11116C6253033640A0077616974696E670029
S9030000FC
